{
  "contractName": "MonstersContract",
  "abi": [
    {
      "constant": true,
      "inputs": [
        {
          "name": "interfaceId",
          "type": "bytes4"
        }
      ],
      "name": "supportsInterface",
      "outputs": [
        {
          "name": "",
          "type": "bool"
        }
      ],
      "payable": false,
      "stateMutability": "view",
      "type": "function"
    },
    {
      "constant": true,
      "inputs": [
        {
          "name": "tokenId",
          "type": "uint256"
        }
      ],
      "name": "getApproved",
      "outputs": [
        {
          "name": "",
          "type": "address"
        }
      ],
      "payable": false,
      "stateMutability": "view",
      "type": "function"
    },
    {
      "constant": false,
      "inputs": [
        {
          "name": "to",
          "type": "address"
        },
        {
          "name": "tokenId",
          "type": "uint256"
        }
      ],
      "name": "approve",
      "outputs": [],
      "payable": false,
      "stateMutability": "nonpayable",
      "type": "function"
    },
    {
      "constant": false,
      "inputs": [
        {
          "name": "from",
          "type": "address"
        },
        {
          "name": "to",
          "type": "address"
        },
        {
          "name": "tokenId",
          "type": "uint256"
        }
      ],
      "name": "transferFrom",
      "outputs": [],
      "payable": false,
      "stateMutability": "nonpayable",
      "type": "function"
    },
    {
      "constant": false,
      "inputs": [
        {
          "name": "from",
          "type": "address"
        },
        {
          "name": "to",
          "type": "address"
        },
        {
          "name": "tokenId",
          "type": "uint256"
        }
      ],
      "name": "safeTransferFrom",
      "outputs": [],
      "payable": false,
      "stateMutability": "nonpayable",
      "type": "function"
    },
    {
      "constant": true,
      "inputs": [
        {
          "name": "",
          "type": "uint256"
        }
      ],
      "name": "battles",
      "outputs": [
        {
          "name": "dateBattle",
          "type": "uint256"
        },
        {
          "name": "whoWin",
          "type": "uint256"
        },
        {
          "name": "opponent1",
          "type": "uint256"
        },
        {
          "name": "opponent2",
          "type": "uint256"
        }
      ],
      "payable": false,
      "stateMutability": "view",
      "type": "function"
    },
    {
      "constant": true,
      "inputs": [
        {
          "name": "tokenId",
          "type": "uint256"
        }
      ],
      "name": "ownerOf",
      "outputs": [
        {
          "name": "",
          "type": "address"
        }
      ],
      "payable": false,
      "stateMutability": "view",
      "type": "function"
    },
    {
      "constant": true,
      "inputs": [
        {
          "name": "owner",
          "type": "address"
        }
      ],
      "name": "balanceOf",
      "outputs": [
        {
          "name": "",
          "type": "uint256"
        }
      ],
      "payable": false,
      "stateMutability": "view",
      "type": "function"
    },
    {
      "constant": false,
      "inputs": [
        {
          "name": "to",
          "type": "address"
        },
        {
          "name": "approved",
          "type": "bool"
        }
      ],
      "name": "setApprovalForAll",
      "outputs": [],
      "payable": false,
      "stateMutability": "nonpayable",
      "type": "function"
    },
    {
      "constant": false,
      "inputs": [
        {
          "name": "from",
          "type": "address"
        },
        {
          "name": "to",
          "type": "address"
        },
        {
          "name": "tokenId",
          "type": "uint256"
        },
        {
          "name": "_data",
          "type": "bytes"
        }
      ],
      "name": "safeTransferFrom",
      "outputs": [],
      "payable": false,
      "stateMutability": "nonpayable",
      "type": "function"
    },
    {
      "constant": true,
      "inputs": [
        {
          "name": "",
          "type": "uint256"
        }
      ],
      "name": "monsters",
      "outputs": [
        {
          "name": "name",
          "type": "string"
        },
        {
          "name": "dna",
          "type": "uint256"
        },
        {
          "name": "status",
          "type": "uint8"
        },
        {
          "name": "value",
          "type": "uint256"
        },
        {
          "name": "birthTime",
          "type": "uint64"
        }
      ],
      "payable": false,
      "stateMutability": "view",
      "type": "function"
    },
    {
      "constant": true,
      "inputs": [
        {
          "name": "owner",
          "type": "address"
        },
        {
          "name": "operator",
          "type": "address"
        }
      ],
      "name": "isApprovedForAll",
      "outputs": [
        {
          "name": "",
          "type": "bool"
        }
      ],
      "payable": false,
      "stateMutability": "view",
      "type": "function"
    },
    {
      "anonymous": false,
      "inputs": [
        {
          "indexed": true,
          "name": "from",
          "type": "address"
        },
        {
          "indexed": true,
          "name": "to",
          "type": "address"
        },
        {
          "indexed": true,
          "name": "tokenId",
          "type": "uint256"
        }
      ],
      "name": "Transfer",
      "type": "event"
    },
    {
      "anonymous": false,
      "inputs": [
        {
          "indexed": true,
          "name": "owner",
          "type": "address"
        },
        {
          "indexed": true,
          "name": "approved",
          "type": "address"
        },
        {
          "indexed": true,
          "name": "tokenId",
          "type": "uint256"
        }
      ],
      "name": "Approval",
      "type": "event"
    },
    {
      "anonymous": false,
      "inputs": [
        {
          "indexed": true,
          "name": "owner",
          "type": "address"
        },
        {
          "indexed": true,
          "name": "operator",
          "type": "address"
        },
        {
          "indexed": false,
          "name": "approved",
          "type": "bool"
        }
      ],
      "name": "ApprovalForAll",
      "type": "event"
    },
    {
      "constant": false,
      "inputs": [
        {
          "name": "_name",
          "type": "string"
        }
      ],
      "name": "buymonster",
      "outputs": [],
      "payable": true,
      "stateMutability": "payable",
      "type": "function"
    },
    {
      "constant": false,
      "inputs": [
        {
          "name": "firstMonster",
          "type": "uint256"
        },
        {
          "name": "secondMonster",
          "type": "uint256"
        }
      ],
      "name": "battleMonsters",
      "outputs": [],
      "payable": false,
      "stateMutability": "nonpayable",
      "type": "function"
    },
    {
      "constant": false,
      "inputs": [
        {
          "name": "_tokenId",
          "type": "uint256"
        }
      ],
      "name": "killMyMonster",
      "outputs": [],
      "payable": false,
      "stateMutability": "nonpayable",
      "type": "function"
    }
  ],
  "bytecode": "0x60806040526010600755600754600a0a600855620151806009556000600a556046600b5561005e6301ffc9a77c01000000000000000000000000000000000000000000000000000000000261009e640100000000026401000000009004565b6100996380ac58cd7c01000000000000000000000000000000000000000000000000000000000261009e640100000000026401000000009004565b61015b565b63ffffffff7c010000000000000000000000000000000000000000000000000000000002817bffffffffffffffffffffffffffffffffffffffffffffffffffffffff1916141515156100ef57600080fd5b6001600080837bffffffffffffffffffffffffffffffffffffffffffffffffffffffff19167bffffffffffffffffffffffffffffffffffffffffffffffffffffffff1916815260200190815260200160002060006101000a81548160ff02191690831515021790555050565b612245806200016b6000396000f3fe6080604052600436106100db576000357c0100000000000000000000000000000000000000000000000000000000900463ffffffff16806301ffc9a7146100e0578063081812fc14610152578063095ea7b3146101cd57806323b872dd1461022857806342842e0e146102a3578063606d2e961461031e5780636352211e1461038257806370a08231146103fd5780639210947714610462578063a22cb4651461049d578063b88d4fde146104fa578063c0576b731461060c578063c940b21f146106fe578063e935907d146107b9578063e985e9c5146107fe575b600080fd5b3480156100ec57600080fd5b506101386004803603602081101561010357600080fd5b8101908080357bffffffffffffffffffffffffffffffffffffffffffffffffffffffff19169060200190929190505050610887565b604051808215151515815260200191505060405180910390f35b34801561015e57600080fd5b5061018b6004803603602081101561017557600080fd5b81019080803590602001909291905050506108ee565b604051808273ffffffffffffffffffffffffffffffffffffffff1673ffffffffffffffffffffffffffffffffffffffff16815260200191505060405180910390f35b3480156101d957600080fd5b50610226600480360360408110156101f057600080fd5b81019080803573ffffffffffffffffffffffffffffffffffffffff1690602001909291908035906020019092919050505061093f565b005b34801561023457600080fd5b506102a16004803603606081101561024b57600080fd5b81019080803573ffffffffffffffffffffffffffffffffffffffff169060200190929190803573ffffffffffffffffffffffffffffffffffffffff16906020019092919080359060200190929190505050610a84565b005b3480156102af57600080fd5b5061031c600480360360608110156102c657600080fd5b81019080803573ffffffffffffffffffffffffffffffffffffffff169060200190929190803573ffffffffffffffffffffffffffffffffffffffff16906020019092919080359060200190929190505050610aa9565b005b34801561032a57600080fd5b506103576004803603602081101561034157600080fd5b8101908080359060200190929190505050610aca565b6040518085815260200184815260200183815260200182815260200194505050505060405180910390f35b34801561038e57600080fd5b506103bb600480360360208110156103a557600080fd5b8101908080359060200190929190505050610b09565b604051808273ffffffffffffffffffffffffffffffffffffffff1673ffffffffffffffffffffffffffffffffffffffff16815260200191505060405180910390f35b34801561040957600080fd5b5061044c6004803603602081101561042057600080fd5b81019080803573ffffffffffffffffffffffffffffffffffffffff169060200190929190505050610b87565b6040518082815260200191505060405180910390f35b34801561046e57600080fd5b5061049b6004803603602081101561048557600080fd5b8101908080359060200190929190505050610c0b565b005b3480156104a957600080fd5b506104f8600480360360408110156104c057600080fd5b81019080803573ffffffffffffffffffffffffffffffffffffffff169060200190929190803515159060200190929190505050610d13565b005b34801561050657600080fd5b5061060a6004803603608081101561051d57600080fd5b81019080803573ffffffffffffffffffffffffffffffffffffffff169060200190929190803573ffffffffffffffffffffffffffffffffffffffff169060200190929190803590602001909291908035906020019064010000000081111561058457600080fd5b82018360208201111561059657600080fd5b803590602001918460018302840111640100000000831117156105b857600080fd5b91908080601f016020809104026020016040519081016040528093929190818152602001838380828437600081840152601f19601f820116905080830192505050505050509192919290505050610e4f565b005b34801561061857600080fd5b506106456004803603602081101561062f57600080fd5b8101908080359060200190929190505050610e77565b604051808060200186815260200185600281111561065f57fe5b60ff1681526020018481526020018367ffffffffffffffff1667ffffffffffffffff168152602001828103825287818151815260200191508051906020019080838360005b838110156106bf5780820151818401526020810190506106a4565b50505050905090810190601f1680156106ec5780820380516001836020036101000a031916815260200191505b50965050505050505060405180910390f35b6107b76004803603602081101561071457600080fd5b810190808035906020019064010000000081111561073157600080fd5b82018360208201111561074357600080fd5b8035906020019184600183028401116401000000008311171561076557600080fd5b91908080601f016020809104026020016040519081016040528093929190818152602001838380828437600081840152601f19601f820116905080830192505050505050509192919290505050610f75565b005b3480156107c557600080fd5b506107fc600480360360408110156107dc57600080fd5b810190808035906020019092919080359060200190929190505050611037565b005b34801561080a57600080fd5b5061086d6004803603604081101561082157600080fd5b81019080803573ffffffffffffffffffffffffffffffffffffffff169060200190929190803573ffffffffffffffffffffffffffffffffffffffff169060200190929190505050611340565b604051808215151515815260200191505060405180910390f35b6000806000837bffffffffffffffffffffffffffffffffffffffffffffffffffffffff19167bffffffffffffffffffffffffffffffffffffffffffffffffffffffff1916815260200190815260200160002060009054906101000a900460ff169050919050565b60006108f9826113d4565b151561090457600080fd5b6002600083815260200190815260200160002060009054906101000a900473ffffffffffffffffffffffffffffffffffffffff169050919050565b600061094a82610b09565b90508073ffffffffffffffffffffffffffffffffffffffff168373ffffffffffffffffffffffffffffffffffffffff161415151561098757600080fd5b8073ffffffffffffffffffffffffffffffffffffffff163373ffffffffffffffffffffffffffffffffffffffff1614806109c757506109c68133611340565b5b15156109d257600080fd5b826002600084815260200190815260200160002060006101000a81548173ffffffffffffffffffffffffffffffffffffffff021916908373ffffffffffffffffffffffffffffffffffffffff160217905550818373ffffffffffffffffffffffffffffffffffffffff168273ffffffffffffffffffffffffffffffffffffffff167f8c5be1e5ebec7d5bd14f71427d1e84f3dd0314c0f7b2291e5b200ac8c7c3b92560405160405180910390a4505050565b610a8e3382611446565b1515610a9957600080fd5b610aa48383836114db565b505050565b610ac58383836020604051908101604052806000815250610e4f565b505050565b600681815481101515610ad957fe5b90600052602060002090600402016000915090508060000154908060010154908060020154908060030154905084565b6000806001600084815260200190815260200160002060009054906101000a900473ffffffffffffffffffffffffffffffffffffffff169050600073ffffffffffffffffffffffffffffffffffffffff168173ffffffffffffffffffffffffffffffffffffffff1614151515610b7e57600080fd5b80915050919050565b60008073ffffffffffffffffffffffffffffffffffffffff168273ffffffffffffffffffffffffffffffffffffffff1614151515610bc457600080fd5b600360008373ffffffffffffffffffffffffffffffffffffffff1673ffffffffffffffffffffffffffffffffffffffff168152602001908152602001600020549050919050565b610c14816113d4565b1515610c1f57600080fd5b3373ffffffffffffffffffffffffffffffffffffffff16610c3f82610b09565b73ffffffffffffffffffffffffffffffffffffffff16141515610c6157600080fd5b6000600582815481101515610c7257fe5b906000526020600020906006020190503373ffffffffffffffffffffffffffffffffffffffff166108fc82600301549081150290604051600060405180830381858888f19350505050158015610ccc573d6000803e3d6000fd5b5060028160020160006101000a81548160ff02191690836002811115610cee57fe5b021790555060008160030181905550610d0f610d0983610b09565b83611740565b5050565b3373ffffffffffffffffffffffffffffffffffffffff168273ffffffffffffffffffffffffffffffffffffffff1614151515610d4e57600080fd5b80600460003373ffffffffffffffffffffffffffffffffffffffff1673ffffffffffffffffffffffffffffffffffffffff16815260200190815260200160002060008473ffffffffffffffffffffffffffffffffffffffff1673ffffffffffffffffffffffffffffffffffffffff16815260200190815260200160002060006101000a81548160ff0219169083151502179055508173ffffffffffffffffffffffffffffffffffffffff163373ffffffffffffffffffffffffffffffffffffffff167f17307eab39ab6107e8899845ad3d59bd9653f200f220920489ca2b5937696c3183604051808215151515815260200191505060405180910390a35050565b610e5a848484610a84565b610e66848484846118d4565b1515610e7157600080fd5b50505050565b600581815481101515610e8657fe5b9060005260206000209060060201600091509050806000018054600181600116156101000203166002900480601f016020809104026020016040519081016040528092919081815260200182805460018160011615610100020316600290048015610f325780601f10610f0757610100808354040283529160200191610f32565b820191906000526020600020905b815481529060010190602001808311610f1557829003601f168201915b5050505050908060010154908060020160009054906101000a900460ff16908060030154908060040160009054906101000a900467ffffffffffffffff16905085565b67016345785d8a0000341015151561101b576040517f08c379a00000000000000000000000000000000000000000000000000000000081526004018080602001828103825260258152602001807f4c6120736f6d6d6520656e766f79c3a9206e276573742070617320737566666981526020017f73616e746500000000000000000000000000000000000000000000000000000081525060400191505060405180910390fd5b60006110278234611af7565b90506110333382611c7d565b5050565b611040826113d4565b80156110515750611050816113d4565b5b151561105c57600080fd5b80821415151561106b57600080fd5b3373ffffffffffffffffffffffffffffffffffffffff1661108b83610b09565b73ffffffffffffffffffffffffffffffffffffffff161415156110ad57600080fd5b60006005838154811015156110be57fe5b9060005260206000209060060201905060006005838154811015156110df57fe5b9060005260206000209060060201905060006110fb6064611e16565b90506000600b5482111561110f5784611111565b855b905061111b6120b2565b6080604051908101604052804267ffffffffffffffff168152602001838152602001888152602001878152509050600060016006839080600181540180825580915050906001820390600052602060002090600402016000909192909190915060008201518160000155602082015181600101556040820151816002015560608201518160030155505003905085600501819080600181540180825580915050906001820390600052602060002001600090919290919091505550846005018190806001815401808255809150509060018203906000526020600020016000909192909190915055508783141561125d5761122a66038d7ea4c680008760030154611ebe90919063ffffffff16565b866003018190555061125066038d7ea4c680008660030154611edf90919063ffffffff16565b85600301819055506112aa565b61127b66038d7ea4c680008660030154611ebe90919063ffffffff16565b85600301819055506112a166038d7ea4c680008760030154611edf90919063ffffffff16565b86600301819055505b6000856003015414156112f05760018560020160006101000a81548160ff021916908360028111156112d857fe5b02179055506112ef6112e988610b09565b88611740565b5b6000866003015414156113365760018660020160006101000a81548160ff0219169083600281111561131e57fe5b021790555061133561132f89610b09565b89611740565b5b5050505050505050565b6000600460008473ffffffffffffffffffffffffffffffffffffffff1673ffffffffffffffffffffffffffffffffffffffff16815260200190815260200160002060008373ffffffffffffffffffffffffffffffffffffffff1673ffffffffffffffffffffffffffffffffffffffff16815260200190815260200160002060009054906101000a900460ff16905092915050565b6000806001600084815260200190815260200160002060009054906101000a900473ffffffffffffffffffffffffffffffffffffffff169050600073ffffffffffffffffffffffffffffffffffffffff168173ffffffffffffffffffffffffffffffffffffffff161415915050919050565b60008061145283610b09565b90508073ffffffffffffffffffffffffffffffffffffffff168473ffffffffffffffffffffffffffffffffffffffff1614806114c157508373ffffffffffffffffffffffffffffffffffffffff166114a9846108ee565b73ffffffffffffffffffffffffffffffffffffffff16145b806114d257506114d18185611340565b5b91505092915050565b8273ffffffffffffffffffffffffffffffffffffffff166114fb82610b09565b73ffffffffffffffffffffffffffffffffffffffff1614151561151d57600080fd5b600073ffffffffffffffffffffffffffffffffffffffff168273ffffffffffffffffffffffffffffffffffffffff161415151561155957600080fd5b61156281611f01565b6115b56001600360008673ffffffffffffffffffffffffffffffffffffffff1673ffffffffffffffffffffffffffffffffffffffff16815260200190815260200160002054611edf90919063ffffffff16565b600360008573ffffffffffffffffffffffffffffffffffffffff1673ffffffffffffffffffffffffffffffffffffffff1681526020019081526020016000208190555061164b6001600360008573ffffffffffffffffffffffffffffffffffffffff1673ffffffffffffffffffffffffffffffffffffffff16815260200190815260200160002054611ebe90919063ffffffff16565b600360008473ffffffffffffffffffffffffffffffffffffffff1673ffffffffffffffffffffffffffffffffffffffff16815260200190815260200160002081905550816001600083815260200190815260200160002060006101000a81548173ffffffffffffffffffffffffffffffffffffffff021916908373ffffffffffffffffffffffffffffffffffffffff160217905550808273ffffffffffffffffffffffffffffffffffffffff168473ffffffffffffffffffffffffffffffffffffffff167fddf252ad1be2c89b69c2b068fc378daa952ba7f163c4a11628f55a4df523b3ef60405160405180910390a4505050565b8173ffffffffffffffffffffffffffffffffffffffff1661176082610b09565b73ffffffffffffffffffffffffffffffffffffffff1614151561178257600080fd5b61178b81611f01565b6117de6001600360008573ffffffffffffffffffffffffffffffffffffffff1673ffffffffffffffffffffffffffffffffffffffff16815260200190815260200160002054611edf90919063ffffffff16565b600360008473ffffffffffffffffffffffffffffffffffffffff1673ffffffffffffffffffffffffffffffffffffffff1681526020019081526020016000208190555060006001600083815260200190815260200160002060006101000a81548173ffffffffffffffffffffffffffffffffffffffff021916908373ffffffffffffffffffffffffffffffffffffffff16021790555080600073ffffffffffffffffffffffffffffffffffffffff168373ffffffffffffffffffffffffffffffffffffffff167fddf252ad1be2c89b69c2b068fc378daa952ba7f163c4a11628f55a4df523b3ef60405160405180910390a45050565b60006118f58473ffffffffffffffffffffffffffffffffffffffff16611fc1565b15156119045760019050611aef565b60008473ffffffffffffffffffffffffffffffffffffffff1663150b7a02338887876040518563ffffffff167c0100000000000000000000000000000000000000000000000000000000028152600401808573ffffffffffffffffffffffffffffffffffffffff1673ffffffffffffffffffffffffffffffffffffffff1681526020018473ffffffffffffffffffffffffffffffffffffffff1673ffffffffffffffffffffffffffffffffffffffff16815260200183815260200180602001828103825283818151815260200191508051906020019080838360005b838110156119fb5780820151818401526020810190506119e0565b50505050905090810190601f168015611a285780820380516001836020036101000a031916815260200191505b5095505050505050602060405180830381600087803b158015611a4a57600080fd5b505af1158015611a5e573d6000803e3d6000fd5b505050506040513d6020811015611a7457600080fd5b8101908080519060200190929190505050905063150b7a027c0100000000000000000000000000000000000000000000000000000000027bffffffffffffffffffffffffffffffffffffffffffffffffffffffff1916817bffffffffffffffffffffffffffffffffffffffffffffffffffffffff1916149150505b949350505050565b600080611b0384611fd4565b9050606481811515611b1157fe5b0681039050611b1e6120db565b60c06040519081016040528086815260200183815260200160006002811115611b4357fe5b81526020018581526020014267ffffffffffffffff1681526020016000604051908082528060200260200182016040528015611b8e5781602001602082028038833980820191505090505b50815250905060006001600583908060018154018082558091505090600182039060005260206000209060060201600090919290919091506000820151816000019080519060200190611be2929190612127565b506020820151816001015560408201518160020160006101000a81548160ff02191690836002811115611c1157fe5b02179055506060820151816003015560808201518160040160006101000a81548167ffffffffffffffff021916908367ffffffffffffffff16021790555060a0820151816005019080519060200190611c6b9291906121a7565b50505003905080935050505092915050565b600073ffffffffffffffffffffffffffffffffffffffff168273ffffffffffffffffffffffffffffffffffffffff1614151515611cb957600080fd5b611cc2816113d4565b151515611cce57600080fd5b816001600083815260200190815260200160002060006101000a81548173ffffffffffffffffffffffffffffffffffffffff021916908373ffffffffffffffffffffffffffffffffffffffff160217905550611d736001600360008573ffffffffffffffffffffffffffffffffffffffff1673ffffffffffffffffffffffffffffffffffffffff16815260200190815260200160002054611ebe90919063ffffffff16565b600360008473ffffffffffffffffffffffffffffffffffffffff1673ffffffffffffffffffffffffffffffffffffffff16815260200190815260200160002081905550808273ffffffffffffffffffffffffffffffffffffffff16600073ffffffffffffffffffffffffffffffffffffffff167fddf252ad1be2c89b69c2b068fc378daa952ba7f163c4a11628f55a4df523b3ef60405160405180910390a45050565b6000611e2e6001600a54611ebe90919063ffffffff16565b600a81905550814233600a54604051602001808481526020018373ffffffffffffffffffffffffffffffffffffffff1673ffffffffffffffffffffffffffffffffffffffff166c0100000000000000000000000002815260140182815260200193505050506040516020818303038152906040528051906020012060019004811515611eb657fe5b069050919050565b6000808284019050838110151515611ed557600080fd5b8091505092915050565b6000828211151515611ef057600080fd5b600082840390508091505092915050565b600073ffffffffffffffffffffffffffffffffffffffff166002600083815260200190815260200160002060009054906101000a900473ffffffffffffffffffffffffffffffffffffffff1673ffffffffffffffffffffffffffffffffffffffff16141515611fbe5760006002600083815260200190815260200160002060006101000a81548173ffffffffffffffffffffffffffffffffffffffff021916908373ffffffffffffffffffffffffffffffffffffffff1602179055505b50565b600080823b905060008111915050919050565b6000808233426040516020018084805190602001908083835b6020831015156120125780518252602082019150602081019050602083039250611fed565b6001836020036101000a0380198251168184511680821785525050505050509050018373ffffffffffffffffffffffffffffffffffffffff1673ffffffffffffffffffffffffffffffffffffffff166c01000000000000000000000000028152601401828152602001935050505060405160208183030381529060405280519060200120600190049050600854818115156120a957fe5b06915050919050565b608060405190810160405280600081526020016000815260200160008152602001600081525090565b60c06040519081016040528060608152602001600081526020016000600281111561210257fe5b815260200160008152602001600067ffffffffffffffff168152602001606081525090565b828054600181600116156101000203166002900490600052602060002090601f016020900481019282601f1061216857805160ff1916838001178555612196565b82800160010185558215612196579182015b8281111561219557825182559160200191906001019061217a565b5b5090506121a391906121f4565b5090565b8280548282559060005260206000209081019282156121e3579160200282015b828111156121e25782518255916020019190600101906121c7565b5b5090506121f091906121f4565b5090565b61221691905b808211156122125760008160009055506001016121fa565b5090565b9056fea165627a7a723058202dea52ec7165b1733f3ff73a5a98bb3bb34d939756f0c98d532eb1c89cb697eb0029",
  "source": "pragma solidity ^0.5.0;\n\n\nimport \"openzeppelin-solidity/contracts/token/ERC721/ERC721.sol\";\nimport \"openzeppelin-solidity/contracts/math/Math.sol\";\n\ncontract MonstersContract is ERC721 {\n\t\n  using SafeMath for uint256;\n   \n\tenum Living {ALIVE,DEAD_IN_BATTLE, SUICIDE}\n   \n   \n\tstruct Monster {\n\t\tstring name;\n\t\tuint dna;\n\t\tLiving status; \n\t\tuint256 value;\n\t\tuint64 birthTime;\n\t\tuint256[] battles;\n\t}\n   \n   struct Battle{\n   \t\tuint256 dateBattle;   \t\t\n   \t\tuint256 whoWin;\n   \t\tuint256 opponent1;\n   \t\tuint256 opponent2;\n   }\n\t\n   Monster[] public monsters;\n   Battle[] public battles;\n   \n   uint dnaDigits = 16;\n   uint dnaModulus = 10 ** dnaDigits;\n   uint cooldownTime = 1 days;\n   uint randNonce = 0;\n   uint attackVictoryProbability = 70;\n \n \n\tfunction buymonster(string memory _name) public payable{\n\t\trequire(msg.value  >= 100 finney,\"La somme envoy n'est pas suffisante\");\n\t\tuint256 tokenId = _createMonster(_name,msg.value);\t\t\n\t\t_mint(msg.sender,tokenId);\n\t}\n\t\n\tfunction _createMonster(string memory _name , uint256 valueAmount) internal  returns (uint){\n\t\tuint randDna = _generateRandomDna(_name);\n\t\trandDna = randDna - randDna % 100;\n\t\tMonster memory _monster = Monster({\n\t\t\tname: _name,\n\t\t\tstatus : Living.ALIVE,\t\t\t \n\t\t\tdna:   randDna,\n\t\t\tvalue : valueAmount,        \n            birthTime: uint64(now),\n           \tbattles: new uint256[](0)\n        });        \n        uint256 newMonsterId = monsters.push(_monster) - 1;       \n        return newMonsterId;\n    }\n    function _generateRandomDna(string memory _str) private view returns (uint) {\n\t\tuint rand = uint(keccak256(abi.encodePacked(_str,msg.sender,now)));\n\t\treturn rand % dnaModulus;\n    }\n    function randMod(uint _modulus) internal returns(uint) {\n     randNonce = randNonce.add(1);\n     return uint(keccak256(abi.encodePacked(now, msg.sender, randNonce))) % _modulus;\n    }\n    \n    \n    function battleMonsters(uint256 firstMonster,uint256 secondMonster) public{\n    \trequire(_exists(firstMonster) && _exists(secondMonster));\n    \trequire(firstMonster!=secondMonster);\n    \trequire(ownerOf(firstMonster) == msg.sender);\n    \t\n    \t\n    \tMonster storage myMonster = monsters[firstMonster];\n    \tMonster storage enemyMonster = monsters[secondMonster];\n    \t\n    \tuint rand = randMod(100);\n    \tuint256 resultBattle = (rand <= attackVictoryProbability)?firstMonster:secondMonster;\n    \t\n    \tBattle memory _battle = Battle({\n    \t\tdateBattle : uint64(now),\n    \t\twhoWin : resultBattle,\n    \t\topponent1  : firstMonster,\n    \t\topponent2  : secondMonster\n    \t});\n    \tuint256 newBattleId = battles.push(_battle) - 1; \n    \t\n    \tmyMonster.battles.push(newBattleId);\n    \tenemyMonster.battles.push(newBattleId);\n    \t\n    \tif(resultBattle == firstMonster){\n    \t\tmyMonster.value = myMonster.value.add(1 finney);\n    \t\tenemyMonster.value = enemyMonster.value.sub(1 finney);\n    \t}else{\n    \t\tenemyMonster.value = enemyMonster.value.add(1 finney);\n    \t\tmyMonster.value = myMonster.value.sub(1 finney);\n    \t}\n    \t//Kill enemyMonster\n    \tif(enemyMonster.value==0){\n    \t\tenemyMonster.status = Living.DEAD_IN_BATTLE;\n    \t\t_burn(ownerOf(secondMonster),secondMonster);\n    \t}\n    \t//Kill MyMonster\n    \tif(myMonster.value==0){\n    \t\tmyMonster.status = Living.DEAD_IN_BATTLE;\n    \t\t_burn(ownerOf(firstMonster),firstMonster);\n    \t}\n    }\n    function killMyMonster(uint256 _tokenId) public{\n    \trequire(_exists(_tokenId));\n    \trequire(ownerOf(_tokenId) == msg.sender);\n    \tMonster storage myMonster = monsters[_tokenId];\n    \t\n    \taddress(msg.sender).transfer(myMonster.value);\n    \tmyMonster.status = Living.SUICIDE;\n    \tmyMonster.value = 0;\n    \t_burn(ownerOf(_tokenId),_tokenId);\n    }\n    \n\t\n}",
  "sourcePath": "/Users/rynthak/git/alyra-exercices/exo-online/week-7/day-5/defi-4/monsters/contracts/MonstersContract.sol",
  "compiler": {
    "name": "solc",
    "version": "0.5.0+commit.1d4f565a.Emscripten.clang"
  },
  "schemaVersion": "3.0.2",
  "updatedAt": "2019-03-10T13:07:36.044Z",
  "devdoc": {
    "methods": {
      "approve(address,uint256)": {
        "details": "Approves another address to transfer the given token ID The zero address indicates there is no approved address. There can only be one approved address per token at a given time. Can only be called by the token owner or an approved operator.",
        "params": {
          "to": "address to be approved for the given token ID",
          "tokenId": "uint256 ID of the token to be approved"
        }
      },
      "balanceOf(address)": {
        "details": "Gets the balance of the specified address",
        "params": {
          "owner": "address to query the balance of"
        },
        "return": "uint256 representing the amount owned by the passed address"
      },
      "getApproved(uint256)": {
        "details": "Gets the approved address for a token ID, or zero if no address set Reverts if the token ID does not exist.",
        "params": {
          "tokenId": "uint256 ID of the token to query the approval of"
        },
        "return": "address currently approved for the given token ID"
      },
      "isApprovedForAll(address,address)": {
        "details": "Tells whether an operator is approved by a given owner",
        "params": {
          "operator": "operator address which you want to query the approval of",
          "owner": "owner address which you want to query the approval of"
        },
        "return": "bool whether the given operator is approved by the given owner"
      },
      "ownerOf(uint256)": {
        "details": "Gets the owner of the specified token ID",
        "params": {
          "tokenId": "uint256 ID of the token to query the owner of"
        },
        "return": "owner address currently marked as the owner of the given token ID"
      },
      "safeTransferFrom(address,address,uint256)": {
        "details": "Safely transfers the ownership of a given token ID to another address If the target address is a contract, it must implement `onERC721Received`, which is called upon a safe transfer, and return the magic value `bytes4(keccak256(\"onERC721Received(address,address,uint256,bytes)\"))`; otherwise, the transfer is reverted.     * Requires the msg sender to be the owner, approved, or operator",
        "params": {
          "from": "current owner of the token",
          "to": "address to receive the ownership of the given token ID",
          "tokenId": "uint256 ID of the token to be transferred"
        }
      },
      "safeTransferFrom(address,address,uint256,bytes)": {
        "details": "Safely transfers the ownership of a given token ID to another address If the target address is a contract, it must implement `onERC721Received`, which is called upon a safe transfer, and return the magic value `bytes4(keccak256(\"onERC721Received(address,address,uint256,bytes)\"))`; otherwise, the transfer is reverted. Requires the msg sender to be the owner, approved, or operator",
        "params": {
          "_data": "bytes data to send along with a safe transfer check",
          "from": "current owner of the token",
          "to": "address to receive the ownership of the given token ID",
          "tokenId": "uint256 ID of the token to be transferred"
        }
      },
      "setApprovalForAll(address,bool)": {
        "details": "Sets or unsets the approval of a given operator An operator is allowed to transfer all tokens of the sender on their behalf",
        "params": {
          "approved": "representing the status of the approval to be set",
          "to": "operator address to set the approval"
        }
      },
      "supportsInterface(bytes4)": {
        "details": "implement supportsInterface(bytes4) using a lookup table"
      },
      "transferFrom(address,address,uint256)": {
        "details": "Transfers the ownership of a given token ID to another address Usage of this method is discouraged, use `safeTransferFrom` whenever possible Requires the msg sender to be the owner, approved, or operator",
        "params": {
          "from": "current owner of the token",
          "to": "address to receive the ownership of the given token ID",
          "tokenId": "uint256 ID of the token to be transferred"
        }
      }
    }
  },
  "userdoc": {
    "methods": {}
  }
}